{
  "address": "0x3B47C253674e2806DCB374d5181ed1e715e68492",
  "abi": [
    {
      "inputs": [
        {
          "internalType": "address",
          "name": "stableCoinAddress",
          "type": "address"
        }
      ],
      "stateMutability": "nonpayable",
      "type": "constructor"
    },
    {
      "anonymous": false,
      "inputs": [
        {
          "indexed": true,
          "internalType": "address",
          "name": "borrower",
          "type": "address"
        },
        {
          "indexed": false,
          "internalType": "uint256",
          "name": "amount",
          "type": "uint256"
        },
        {
          "indexed": false,
          "internalType": "uint256",
          "name": "interestRate",
          "type": "uint256"
        },
        {
          "indexed": false,
          "internalType": "uint256",
          "name": "totalRepayment",
          "type": "uint256"
        },
        {
          "indexed": false,
          "internalType": "uint256",
          "name": "monthlyInstallment",
          "type": "uint256"
        },
        {
          "indexed": false,
          "internalType": "uint256",
          "name": "duration",
          "type": "uint256"
        },
        {
          "indexed": false,
          "internalType": "uint256",
          "name": "startTime",
          "type": "uint256"
        },
        {
          "indexed": false,
          "internalType": "uint256",
          "name": "nextPaymentDue",
          "type": "uint256"
        },
        {
          "indexed": false,
          "internalType": "uint256",
          "name": "paidAmount",
          "type": "uint256"
        }
      ],
      "name": "LoanTaken",
      "type": "event"
    },
    {
      "anonymous": false,
      "inputs": [
        {
          "indexed": true,
          "internalType": "address",
          "name": "borrower",
          "type": "address"
        },
        {
          "indexed": false,
          "internalType": "uint256",
          "name": "amount",
          "type": "uint256"
        }
      ],
      "name": "PaymentMade",
      "type": "event"
    },
    {
      "inputs": [],
      "name": "admin",
      "outputs": [
        {
          "internalType": "address",
          "name": "",
          "type": "address"
        }
      ],
      "stateMutability": "view",
      "type": "function"
    },
    {
      "inputs": [
        {
          "internalType": "uint256",
          "name": "_amount",
          "type": "uint256"
        }
      ],
      "name": "approveContract",
      "outputs": [],
      "stateMutability": "nonpayable",
      "type": "function"
    },
    {
      "inputs": [
        {
          "internalType": "address",
          "name": "addressL",
          "type": "address"
        }
      ],
      "name": "getContractBalance",
      "outputs": [
        {
          "components": [
            {
              "internalType": "uint256",
              "name": "amount",
              "type": "uint256"
            },
            {
              "internalType": "uint256",
              "name": "interestRate",
              "type": "uint256"
            },
            {
              "internalType": "uint256",
              "name": "totalRepayment",
              "type": "uint256"
            },
            {
              "internalType": "uint256",
              "name": "monthlyInstallment",
              "type": "uint256"
            },
            {
              "internalType": "uint256",
              "name": "duration",
              "type": "uint256"
            },
            {
              "internalType": "uint256",
              "name": "startTime",
              "type": "uint256"
            },
            {
              "internalType": "uint256",
              "name": "nextPaymentDue",
              "type": "uint256"
            },
            {
              "internalType": "uint256",
              "name": "paidAmount",
              "type": "uint256"
            }
          ],
          "internalType": "struct ConConfianza.Loan",
          "name": "",
          "type": "tuple"
        }
      ],
      "stateMutability": "view",
      "type": "function"
    },
    {
      "inputs": [],
      "name": "getContractBalance",
      "outputs": [
        {
          "internalType": "uint256",
          "name": "",
          "type": "uint256"
        }
      ],
      "stateMutability": "view",
      "type": "function"
    },
    {
      "inputs": [
        {
          "internalType": "uint256",
          "name": "amountInUSDC",
          "type": "uint256"
        }
      ],
      "name": "getInterestRate",
      "outputs": [
        {
          "internalType": "uint256",
          "name": "",
          "type": "uint256"
        }
      ],
      "stateMutability": "pure",
      "type": "function"
    },
    {
      "inputs": [
        {
          "internalType": "address",
          "name": "_borrower",
          "type": "address"
        }
      ],
      "name": "getLoanDetails",
      "outputs": [
        {
          "components": [
            {
              "internalType": "uint256",
              "name": "amount",
              "type": "uint256"
            },
            {
              "internalType": "uint256",
              "name": "interestRate",
              "type": "uint256"
            },
            {
              "internalType": "uint256",
              "name": "totalRepayment",
              "type": "uint256"
            },
            {
              "internalType": "uint256",
              "name": "monthlyInstallment",
              "type": "uint256"
            },
            {
              "internalType": "uint256",
              "name": "duration",
              "type": "uint256"
            },
            {
              "internalType": "uint256",
              "name": "startTime",
              "type": "uint256"
            },
            {
              "internalType": "uint256",
              "name": "nextPaymentDue",
              "type": "uint256"
            },
            {
              "internalType": "uint256",
              "name": "paidAmount",
              "type": "uint256"
            }
          ],
          "internalType": "struct ConConfianza.Loan",
          "name": "",
          "type": "tuple"
        }
      ],
      "stateMutability": "view",
      "type": "function"
    },
    {
      "inputs": [
        {
          "internalType": "address",
          "name": "",
          "type": "address"
        }
      ],
      "name": "loans",
      "outputs": [
        {
          "internalType": "uint256",
          "name": "amount",
          "type": "uint256"
        },
        {
          "internalType": "uint256",
          "name": "interestRate",
          "type": "uint256"
        },
        {
          "internalType": "uint256",
          "name": "totalRepayment",
          "type": "uint256"
        },
        {
          "internalType": "uint256",
          "name": "monthlyInstallment",
          "type": "uint256"
        },
        {
          "internalType": "uint256",
          "name": "duration",
          "type": "uint256"
        },
        {
          "internalType": "uint256",
          "name": "startTime",
          "type": "uint256"
        },
        {
          "internalType": "uint256",
          "name": "nextPaymentDue",
          "type": "uint256"
        },
        {
          "internalType": "uint256",
          "name": "paidAmount",
          "type": "uint256"
        }
      ],
      "stateMutability": "view",
      "type": "function"
    },
    {
      "inputs": [
        {
          "internalType": "uint256",
          "name": "_amount",
          "type": "uint256"
        }
      ],
      "name": "makePayment",
      "outputs": [],
      "stateMutability": "nonpayable",
      "type": "function"
    },
    {
      "inputs": [],
      "name": "stablecoin",
      "outputs": [
        {
          "internalType": "contract IERC20",
          "name": "",
          "type": "address"
        }
      ],
      "stateMutability": "view",
      "type": "function"
    },
    {
      "inputs": [
        {
          "internalType": "uint256",
          "name": "_amount",
          "type": "uint256"
        },
        {
          "internalType": "uint256",
          "name": "_duration",
          "type": "uint256"
        }
      ],
      "name": "takeLoan",
      "outputs": [],
      "stateMutability": "nonpayable",
      "type": "function"
    },
    {
      "inputs": [
        {
          "internalType": "uint256",
          "name": "_amount",
          "type": "uint256"
        }
      ],
      "name": "withdrawStablecoin",
      "outputs": [],
      "stateMutability": "nonpayable",
      "type": "function"
    }
  ],
  "transactionHash": "0xfe78854b8ba1004ea4be7c00eb02009a1f31f2eef8f891dd000ec08fde9eabec",
  "args": [
    "0x6145974f28645F58767D799E858a4A90724926e4"
  ],
  "numDeployments": 3,
  "solcInputHash": "a9d856e544694583c7bf97e738ae3d8a",
  "bytecode": "0x608060405234801561001057600080fd5b50604051610ff6380380610ff683398101604081905261002f91610062565b60018054336001600160a01b031991821617909155600280549091166001600160a01b0392909216919091179055610092565b60006020828403121561007457600080fd5b81516001600160a01b038116811461008b57600080fd5b9392505050565b610f55806100a16000396000f3fe608060405234801561001057600080fd5b50600436106100a95760003560e01c806373b4086b1161007157806373b4086b14610178578063870e974e14610204578063a318312514610217578063e8a7da8e146100d4578063e9cbd8221461022a578063f851a4401461025557600080fd5b80630c196a74146100ae57806343ab265f146100d45780635114cb521461014857806362c35c011461015d5780636f9fb98a14610170575b600080fd5b6100c16100bc366004610d8b565b610268565b6040519081526020015b60405180910390f35b6100e76100e2366004610da4565b61036c565b6040516100cb9190600061010082019050825182526020830151602083015260408301516040830152606083015160608301526080830151608083015260a083015160a083015260c083015160c083015260e083015160e083015292915050565b61015b610156366004610d8b565b610429565b005b61015b61016b366004610d8b565b610623565b6100c161069d565b6101c9610186366004610da4565b6000602081905290815260409020805460018201546002830154600384015460048501546005860154600687015460079097015495969495939492939192909188565b604080519889526020890197909752958701949094526060860192909252608085015260a084015260c083015260e0820152610100016100cb565b61015b610212366004610d8b565b61070f565b61015b610225366004610dd4565b6107a4565b60025461023d906001600160a01b031681565b6040516001600160a01b0390911681526020016100cb565b60015461023d906001600160a01b031681565b6000620f424082101580156102805750629896808211155b6102e85760405162461bcd60e51b815260206004820152602e60248201527f4c6f616e20616d6f756e74206d757374206265206265747765656e203120555360448201526d444320616e64203130205553444360901b60648201526084015b60405180910390fd5b60146000622dc6c084116102fe5750600a610314565b626acfc0841161031057506005610314565b5060025b6000620f42406103278662989680610e0c565b6103319190610e25565b61033c906005610e47565b905060008161034b8486610e5e565b6103559190610e5e565b9050610362816064610e47565b9695505050505050565b6103b460405180610100016040528060008152602001600081526020016000815260200160008152602001600081526020016000815260200160008152602001600081525090565b506001600160a01b031660009081526020818152604091829020825161010081018452815481526001820154928101929092526002810154928201929092526003820154606082015260048201546080820152600582015460a0820152600682015460c082015260079091015460e082015290565b336000908152602081905260409020805461047d5760405162461bcd60e51b8152602060048201526014602482015273139bc81858dd1a5d99481b1bd85b88199bdd5b9960621b60448201526064016102df565b600082116104de5760405162461bcd60e51b815260206004820152602860248201527f5061796d656e7420616d6f756e74206d7573742062652067726561746572207460448201526768616e207a65726f60c01b60648201526084016102df565b806007015481600201546104f29190610e0c565b82111561054b5760405162461bcd60e51b815260206004820152602160248201527f5061796d656e7420657863656564732072656d61696e696e672062616c616e636044820152606560f81b60648201526084016102df565b600254610563906001600160a01b0316333085610ac4565b818160070160008282546105779190610e5e565b9250508190555062278d008160060160008282546105959190610e5e565b909155505060028101546007820154106105ea57336000908152602081905260408120818155600181018290556002810182905560038101829055600481018290556005810182905560068101829055600701555b60405182815233907f3a2d0e41c506b136330c6e5e0295ccbf0966daece99bfe7c89020cc01dbfb8d69060200160405180910390a25050565b60025460405163095ea7b360e01b8152306004820152602481018390526001600160a01b039091169063095ea7b3906044015b6020604051808303816000875af1158015610675573d6000803e3d6000fd5b505050506040513d601f19601f820116820180604052508101906106999190610e71565b5050565b6002546040516370a0823160e01b81523060048201526000916001600160a01b0316906370a0823190602401602060405180830381865afa1580156106e6573d6000803e3d6000fd5b505050506040513d601f19601f8201168201806040525081019061070a9190610e93565b905090565b6001546001600160a01b031633146107695760405162461bcd60e51b815260206004820152601760248201527f43616c6c6572206973206e6f74207468652061646d696e00000000000000000060448201526064016102df565b60025460015460405163a9059cbb60e01b81526001600160a01b0391821660048201526024810184905291169063a9059cbb90604401610656565b60006107af83610268565b336000908152602081905260409020549091501561081a5760405162461bcd60e51b815260206004820152602260248201527f4578697374696e67206c6f616e206d75737420626520726570616964206669726044820152611cdd60f21b60648201526084016102df565b600083116108785760405162461bcd60e51b815260206004820152602560248201527f4c6f616e20616d6f756e74206d7573742062652067726561746572207468616e604482015264207a65726f60d81b60648201526084016102df565b6000821180156108895750600c8211155b6108eb5760405162461bcd60e51b815260206004820152602d60248201527f4c6f616e206475726174696f6e206d757374206265206265747765656e20312060448201526c616e64203132206d6f6e74687360981b60648201526084016102df565b60006064836108fa8487610e47565b6109049190610e47565b61090e9190610e25565b6109189085610e5e565b905060006109268483610e25565b90506040518061010001604052808681526020018481526020018381526020018281526020018581526020014281526020014262278d006109679190610e5e565b81526000602091820181905233808252818352604091829020845181559284015160018401558382015160028085019190915560608501516003850155608085015160048086019190915560a0860151600586015560c0860151600686015560e0909501516007909401939093559154905163a9059cbb60e01b815292830191909152602482018790526001600160a01b03169063a9059cbb906044016020604051808303816000875af1158015610a23573d6000803e3d6000fd5b505050506040513d601f19601f82011682018060405250810190610a479190610e71565b50337fd729c7043c12aaa771548e935b418c3dd0491e2de2bb76057b5a3ac51652c2c0868585858942610a7d8162278d00610e5e565b604080519788526020880196909652948601939093526060850191909152608084015260a083015260c0820152600060e08201526101000160405180910390a25050505050565b604080516001600160a01b0385811660248301528416604482015260648082018490528251808303909101815260849091019091526020810180516001600160e01b03166323b872dd60e01b179052610b1e908590610b24565b50505050565b6000610b79826040518060400160405280602081526020017f5361666545524332303a206c6f772d6c6576656c2063616c6c206661696c6564815250856001600160a01b0316610bfb9092919063ffffffff16565b805190915015610bf65780806020019051810190610b979190610e71565b610bf65760405162461bcd60e51b815260206004820152602a60248201527f5361666545524332303a204552433230206f7065726174696f6e20646964206e6044820152691bdd081cdd58d8d9595960b21b60648201526084016102df565b505050565b6060610c0a8484600085610c12565b949350505050565b606082471015610c735760405162461bcd60e51b815260206004820152602660248201527f416464726573733a20696e73756666696369656e742062616c616e636520666f6044820152651c8818d85b1b60d21b60648201526084016102df565b600080866001600160a01b03168587604051610c8f9190610ed0565b60006040518083038185875af1925050503d8060008114610ccc576040519150601f19603f3d011682016040523d82523d6000602084013e610cd1565b606091505b5091509150610ce287838387610ced565b979650505050505050565b60608315610d5c578251600003610d55576001600160a01b0385163b610d555760405162461bcd60e51b815260206004820152601d60248201527f416464726573733a2063616c6c20746f206e6f6e2d636f6e747261637400000060448201526064016102df565b5081610c0a565b610c0a8383815115610d715781518083602001fd5b8060405162461bcd60e51b81526004016102df9190610eec565b600060208284031215610d9d57600080fd5b5035919050565b600060208284031215610db657600080fd5b81356001600160a01b0381168114610dcd57600080fd5b9392505050565b60008060408385031215610de757600080fd5b50508035926020909101359150565b634e487b7160e01b600052601160045260246000fd5b81810381811115610e1f57610e1f610df6565b92915050565b600082610e4257634e487b7160e01b600052601260045260246000fd5b500490565b8082028115828204841417610e1f57610e1f610df6565b80820180821115610e1f57610e1f610df6565b600060208284031215610e8357600080fd5b81518015158114610dcd57600080fd5b600060208284031215610ea557600080fd5b5051919050565b60005b83811015610ec7578181015183820152602001610eaf565b50506000910152565b60008251610ee2818460208701610eac565b9190910192915050565b6020815260008251806020840152610f0b816040850160208701610eac565b601f01601f1916919091016040019291505056fea2646970667358221220169f65a39a4674b7160aadf1611da8d708165c2f34f3e635c933df14bd886a7864736f6c63430008110033",
  "devdoc": {
    "details": "Este contrato permite a los usuarios tomar prstamos y establecer pagos en cuotas.",
    "kind": "dev",
    "methods": {
      "getContractBalance()": {
        "returns": {
          "_0": "El saldo de stablecoins del contrato"
        }
      },
      "getLoanDetails(address)": {
        "params": {
          "_borrower": "La direccin del prestatario"
        },
        "returns": {
          "_0": "Detalles del prstamo del prestatario"
        }
      },
      "makePayment(uint256)": {
        "params": {
          "_amount": "La cantidad a pagar"
        }
      },
      "takeLoan(uint256,uint256)": {
        "params": {
          "_amount": "La cantidad de stablecoin a pedir prestado",
          "_duration": "La duracin del prstamo en meses"
        }
      },
      "withdrawStablecoin(uint256)": {
        "params": {
          "_amount": "La cantidad de stablecoin a retirar"
        }
      }
    },
    "title": "InstallmentLoanContract",
    "version": 1
  },
  "userdoc": {
    "kind": "user",
    "methods": {
      "getContractBalance()": {
        "notice": "Obtener el saldo de stablecoins del contrato"
      },
      "getLoanDetails(address)": {
        "notice": "Obtener los detalles del prstamo de un prestatario"
      },
      "makePayment(uint256)": {
        "notice": "Hacer un pago del prstamo"
      },
      "takeLoan(uint256,uint256)": {
        "notice": "Tomar un prstamo de la plataforma"
      },
      "withdrawStablecoin(uint256)": {
        "notice": "Retirar los stablecoins del contrato"
      }
    },
    "version": 1
  },
  "storageLayout": {
    "storage": [
      {
        "astId": 765,
        "contract": "contracts/ConConfianza.sol:ConConfianza",
        "label": "loans",
        "offset": 0,
        "slot": "0",
        "type": "t_mapping(t_address,t_struct(Loan)760_storage)"
      },
      {
        "astId": 780,
        "contract": "contracts/ConConfianza.sol:ConConfianza",
        "label": "admin",
        "offset": 0,
        "slot": "1",
        "type": "t_address"
      },
      {
        "astId": 783,
        "contract": "contracts/ConConfianza.sol:ConConfianza",
        "label": "stablecoin",
        "offset": 0,
        "slot": "2",
        "type": "t_contract(IERC20)77"
      }
    ],
    "types": {
      "t_address": {
        "encoding": "inplace",
        "label": "address",
        "numberOfBytes": "20"
      },
      "t_contract(IERC20)77": {
        "encoding": "inplace",
        "label": "contract IERC20",
        "numberOfBytes": "20"
      },
      "t_mapping(t_address,t_struct(Loan)760_storage)": {
        "encoding": "mapping",
        "key": "t_address",
        "label": "mapping(address => struct ConConfianza.Loan)",
        "numberOfBytes": "32",
        "value": "t_struct(Loan)760_storage"
      },
      "t_struct(Loan)760_storage": {
        "encoding": "inplace",
        "label": "struct ConConfianza.Loan",
        "members": [
          {
            "astId": 745,
            "contract": "contracts/ConConfianza.sol:ConConfianza",
            "label": "amount",
            "offset": 0,
            "slot": "0",
            "type": "t_uint256"
          },
          {
            "astId": 747,
            "contract": "contracts/ConConfianza.sol:ConConfianza",
            "label": "interestRate",
            "offset": 0,
            "slot": "1",
            "type": "t_uint256"
          },
          {
            "astId": 749,
            "contract": "contracts/ConConfianza.sol:ConConfianza",
            "label": "totalRepayment",
            "offset": 0,
            "slot": "2",
            "type": "t_uint256"
          },
          {
            "astId": 751,
            "contract": "contracts/ConConfianza.sol:ConConfianza",
            "label": "monthlyInstallment",
            "offset": 0,
            "slot": "3",
            "type": "t_uint256"
          },
          {
            "astId": 753,
            "contract": "contracts/ConConfianza.sol:ConConfianza",
            "label": "duration",
            "offset": 0,
            "slot": "4",
            "type": "t_uint256"
          },
          {
            "astId": 755,
            "contract": "contracts/ConConfianza.sol:ConConfianza",
            "label": "startTime",
            "offset": 0,
            "slot": "5",
            "type": "t_uint256"
          },
          {
            "astId": 757,
            "contract": "contracts/ConConfianza.sol:ConConfianza",
            "label": "nextPaymentDue",
            "offset": 0,
            "slot": "6",
            "type": "t_uint256"
          },
          {
            "astId": 759,
            "contract": "contracts/ConConfianza.sol:ConConfianza",
            "label": "paidAmount",
            "offset": 0,
            "slot": "7",
            "type": "t_uint256"
          }
        ],
        "numberOfBytes": "256"
      },
      "t_uint256": {
        "encoding": "inplace",
        "label": "uint256",
        "numberOfBytes": "32"
      }
    }
  }
}